:020000040800F2
:10000000480C0020250200087B020008730200084B
:10001000770200086D020008F903000800000000E4
:100020000000000000000000000000007F02000847
:1000300071020008000000007D0200088102000833
:100040003F0200083F0200083F0200083F0200088C
:100050003F0200083F0200083F0200083F0200087C
:100060003F0200083F0200083F0200083F0200086C
:100070003F0200083F0200083F0200083F0200085C
:100080003F0200083F0200083F0200083F0200084C
:100090003F0200083F0200083F0200083F0200083C
:1000A0003F0200083F0200083F0200083F0200082C
:1000B0003F020008150300083F0200083F02000845
:1000C0003F0200083F0200083F0200083F0200080C
:1000D0003F020008790300083F0200083F020008C1
:1000E0003F0200083F0200083F0200083F020008EC
:1000F0003F0200083F0200083F0200083F020008DC
:100100003F0200083F0200083F0200083F020008CB
:100110003F0200083F0200083F0200083F020008BB
:100120003F0200083F0200083F0200083F020008AB
:100130003F0200083F0200083F0200083F0200089B
:100140003F0200083F0200083F0200083F0200088B
:100150003F0200083F020008000000003F020008C4
:100160003F0200083F0200080000000000000000FD
:100170003F0200083F0200083F02000800000000A4
:10018000000000003F0200083F0200083F02000894
:100190003F02000800000000000000000000000016
:1001A0000000000000000000000000003F02000806
:1001B0003F020008000000003F02000800000000AD
:1001C000000000000000000000000000000000002F
:1001D00000000000000000003F0200083F0200088D
:1001E0003F0200083F0200083F0200083F020008EB
:1001F0003F0200083F0200083F0200083F020008DB
:100200003F0200083F0200083F020008DFF810D05C
:1002100000F01AF8004800478D050008AFF3008091
:10022000480C00200648804706480047FEE7FEE7E6
:10023000FEE7FEE7FEE7FEE7FEE7FEE7FEE7FEE796
:10024000850200080D020008064C074D06E0E06834
:1002500040F0010394E8070098471034AC42F6D30D
:10026000FFF7D8FF0C0600082C06000800BFFEE7C9
:10027000704700BFFEE700BFFEE77047704770475A
:10028000704700001F48006840F470001D49086076
:100290001D48006820F00100401C1B49086000BF99
:1002A00019480068C0F340000028F9D0164808300B
:1002B000006820F0030014490831086000BF1248AC
:1002C00008300068C0F381000028F8D10E480068AB
:1002D0000E4908400C49086000200B4908310860AD
:1002E0000B48091F086000200749A03108604FF43F
:1002F0001F0005490C3108604FF00060014980394A
:100300000860704788ED00E000380240FFFFF2FE11
:100310000230030010B50121134800F05EF90128F6
:1003200020D10121104800F055F9002000F0B6F866
:100330000E480078B0B10E480078401CC0B20C499D
:10034000087008B9FF20087009480078022801DD0C
:1003500000F0BEF806480078052803DD00210548B6
:1003600000F0EEF810BD0000000400400D00002079
:100370000C0000200300300010B500201B4908705D
:1003800020211B4800F03AF970B3194800F02EF90B
:1003900004461848B0F80408B0F5806F08DB002068
:1003A0001449A1F80408A1F80008A1F802081BE00C
:1003B0001048B0F80408401C0E49A1F8040808468B
:1003C000B0F80018B0F80008401C0A4AA2F800086B
:1003D000104620F81140B0F80008B0F5806F03DB3C
:1003E00000201146A1F8000810BD00000C000020FC
:1003F000001001404000002000BFFEE7002807DB9E
:1004000000F01F0201219140024A430942F82310E3
:100410007047000080E200E002E008C8121F08C137
:10042000002AFAD170477047002001E001C1121F75
:10043000002AFBD17047000010B504462068A0F1E7
:100440000050B0F5C02F22D20021114800F078F8FA
:100450000021104800F074F800214FF4401000F023
:100460006FF8252000F0A0F81D2000F09DF8252051
:10047000FFF7C4FF1D20FFF7C1FF07496068086050
:10048000206880F3088800BF08460068804710BDD8
:10049000010040000400440008000020022800DDA4
:1004A0007047094931F8101059B1084951F8201026
:1004B0004969054A32F810205140044A52F8202078
:1004C000516100BFECE700001C000020100000207C
:1004D00010B5EE21124800F08DF800BF4021104801
:1004E00000F08CF80028F9D0FF210D4800F082F8C8
:1004F00000BF40210A4800F081F80028F9D0002010
:1005000008490870084908700849087008490870C7
:1005100008490860084908700849087010BD0000C3
:100520000010014000000020010000200200002017
:1005300003000020040000200C0000200D0000201B
:1005400010B501290FD1104B03EB1042D2F800284F
:1005500000F01F040123A3401A430B4C04EB10438B
:10056000C3F800280EE0084B03EB1042D2F8002835
:1005700000F01F040123A3409A43034C04EB1043F3
:10058000C3F8002810BD0000003002400548406854
:1005900000F07F40B0F1006F02D10248FFF74CFF3E
:1005A00000BFFEE70000040810B501460846002819
:1005B0000BDB00F01F0301229A40054B440943F86E
:1005C0002420BFF34F8FBFF36F8F00BF10BD00001B
:1005D00080E100E0CA4302617047024600201369CF
:1005E0000B400BB1012000E0002070470146486835
:1005F00080B27047C1F3080242607047024610683B
:10060000084008B1012070470020FCE72C060008D4
:100610000000002040000000180400086C060008DC
:1006200040000020080C0000280400080000000022
:10063000000000000000000000000000000C02406C
:10064000000C0240000C024000200040008000002E
:100650000300300003003000030030000000000001
:0C0660000000000000000000010000008D
:040000050800020DE0
:00000001FF
